:020000040800F2
:10000000C01A0020FD010008253A0008F52C000860
:10001000213A0008ED0500082959000800000000F9
:100020000000000000000000000000004D3B000840
:100030004106000800000000293A0008513B000872
:10004000170200081702000817020008170200082C
:10005000170200081702000817020008170200081C
:10006000170200081702000817020008170200080C
:1000700017020008170200081702000817020008FC
:1000800017020008170200081702000817020008EC
:10009000B1570008170200081702000817020008ED
:1000A00017020008170200081702000817020008CC
:1000B00017020008170200081702000817020008BC
:1000C00017020008170200081702000817020008AC
:1000D000170200081702000817020008170200089C
:1000E00017020008170200081702000800F002F8C3
:1000F00000F075F814A696E8000CB244B344DA4553
:1001000001D100F06CF8BAE80F000FA696E83000B5
:10011000A5EB040504EB0607AAEB0704A7F101070A
:100120004FEA15154FEA3414A4F10104AC4201D38F
:1001300000F055F813F0010F18BFFB1A43F001034C
:1001400000F001F8DBE71847485E0000685E000039
:100150000A444FF0000C10F8013B13F0070408BFED
:1001600010F8014B1D1108BF10F8015B641E05D08B
:1001700010F8016B641E01F8016BF9D113F0080F40
:100180001EBF10F8014BAD1C0C1B09D16D1E58BFD2
:1001900001F801CBFAD505E014F8016B01F8016B09
:1001A0006D1EF9D59142D6D370470000704700000C
:1001B0000023002400250026103A28BF78C1FBD870
:1001C000520728BF30C148BF0B607047782900F044
:1001D0007180002070471FB51FBD10B510BD00F025
:1001E000CAF91146FFF7F7FF05F0A0FC00F0E8F9A7
:1001F00003B4FFF7F2FF03BC00F0F0F909488047B1
:1002000009480047FEE7FEE7FEE7FEE7FEE7FEE7F8
:10021000FEE7FEE7FEE7FEE704480549054A064B10
:1002200070470000553B0008ED000008C014002096
:10023000C01A0020C0160020C01600200FB41CB544
:10024000074B06AA7B4469460090059800F07BF9AD
:100250000020694600F08AF91CBC5DF814FB000020
:100260002503000070B5044685690068C10601D504
:10027000302600E02026C00707D070BDD4E9012158
:1002800030469047206A401C20626D1EF6D570BD36
:1002900070B5044685690078C00707D170BDD4E900
:1002A000012120209047206A401C20626D1EF6D557
:1002B00070BD000070B504460D4621461068AFF3CE
:1002C00000802188090502D50F4A7A4402E00E4ACF
:1002D0007A440E32002104F1240305E000F00F06F9
:1002E0000009965D5E54491C0028F7D12078002350
:1002F000000704D5702D02D009B102231132204627
:10030000BDE8704000F0C0B8485C00002DE9F05F27
:10031000894604464FF0000ADFF824B1FB44C0F8D8
:1003200020A02046E168884700287DD0252806D0F7
:10033000D4E901219047206A401C2062F1E70025A2
:100340005F462046E16888472028064607DB312EB5
:1003500005D2B81910F8200C08B10543F1E7A80739
:1003600001D525F00405C4F81CA00027C4F818A086
:100370002A2E09D0304605F0C7FD38B304EB8708B4
:10038000303EC8F8186019E059F8041B204604EB09
:1003900087029161E1688847012F064618D1E0691C
:1003A000002820DA25F020051DE0D8F8180000EB21
:1003B000800006EB40003038C8F818002046E1689D
:1003C0008847064605F0A0FD0028EED1012F0AD08F
:1003D0002E2E08D12046E16888477F1C0646022F52
:1003E00045F02005C4DBA069002803DA404245F04F
:1003F0000105A061E80701D025F01005A6B1A6F11E
:100400004100192802D8203645F400654A46314695
:10041000204625604D46FFF7D9FE60B1012807D080
:10042000ED1D25F0070000E007E000F1080978E77E
:1004300005F1040975E730467AE7206ABDE8F09FC8
:100440001E5C000010B5431C02E010F8011B71B1E6
:100450008107FAD14FF0013202C88C1A8C4314EA9A
:10046000C211F9D0C01A0A0603D0C01E10BDC01AAE
:1004700010BD0A0401D0801E10BD0902FCD0401E30
:1004800010BD7047704770472DE9F0470D469946FB
:100490009246044600F124080168880604D5E06904
:1004A00021F01001216000E00120A84201DD471B7E
:1004B00000E00027A1697A1902EB0900081AA0617F
:1004C0002078C00602D42046FFF7CCFE002608E0C4
:1004D000D4E901211AF806009047206A401C761CD6
:1004E00020624E45F4DB2078C0060AD52046FFF78F
:1004F000B9FE06E0D4E9012130209047206A401C73
:100500002062381EA7F10107F4DC07E0D4E90121DD
:1005100018F805009047206A401C2062281EA5F1AB
:100520000105F3DC2046FFF7B3FE2078000602D574
:100530000220BDE8F0870120FBE7000001694A1CAA
:1005400002610878704700B58FB0CDE90131002114
:10055000059105497944CDE9031011466846FFF736
:10056000D5FE0FB000BD0000E5FFFFFF0A6802F8EE
:10057000010B0A607047754600F02CF8AE46050086
:100580006946534620F00700854618B020B5FFF7AE
:1005900043FEBDE820404FF000064FF000074FF04B
:1005A00000084FF0000BAC46ACE8C009ACE8C0094D
:1005B000ACE8C009ACE8C00921F007018D467047DE
:1005C00010B50446AFF300802046BDE81040FFF7A9
:1005D0000FBE00000048704780010020014918202C
:1005E000ABBEFEE72600020070470000FEE70000F9
:1005F000002070470020704710B540F67464C2F2C6
:10060000000440F67421C2F200012046002203F0EB
:10061000A1FB40F27461C2F20001204603F094FB9A
:10062000002010BD10B540F67464C2F2000401460B
:10063000204603F089FB204603F068FB002010BD34
:1006400070470000EFF3108072B600BFFEE70000B5
:10065000B0B5044600F026F9054640F20000C2F2AB
:1006600000000078611C18BF044400BF00F01AF9B4
:10067000401BA042FAD3B0BD2DE9F04F82B00E6806
:10068000002E00F0FD8041F20042C4F2010204237A
:1006900040F2004E904208BF03234FF6FF7CC4F2A5
:1006A000010E009300240123C1F2100C4FF0000A48
:1006B0004FF000094BE000BF41F20002C4F201021A
:1006C000009F904208BF022704F00C030F229A40BB
:1006D0002BEA020207FA03F34FEA9A051A4346F897
:1006E00025204E6840F20C45F202DEF8082054BF87
:1006F00022EA080242EA0802C4F20105CEF8082004
:100700002A68B30254BF22EA080242EA08022A60B9
:10071000B303DEF8042054BF22EA080242EA0802CA
:10072000F303CEF80420DEF800204FF0010354BF9D
:1007300022EA080242EA0802CEF800200E680AF116
:10074000010A36FA0AF204F1040400F0998003FA6F
:100750000AFB16EA0B08F1D04E68664512DC122E31
:1007600056D8DFE806F0350B4D49555555555555CA
:100770005555555555555545510000BFD1F80C906C
:1007800046E000BF4FF6FF72C1F2210296420FDC35
:100790000022C1F2110296421AD00022C1F21202C6
:1007A000964215D00022C1F22102964210D02FE0CD
:1007B0000022C1F2220296420AD00022C1F2310286
:1007C000964205D00022C1F23202964220D100BFEB
:1007D0008A684AB1012A14BFC0F814B0C0F810B03A
:1007E0004FF0080914E000BF4FF0040910E000BF0B
:1007F000CA6802F104090BE04FF0000908E000BFED
:10080000CA6802F1080903E0CA6802F10C0900BFD6
:1008100002462646B8F5807F24BF0432203E176882
:100820000F25B54027EA050509FA06F63543156098
:10083000CA79D2067FF582AF41F21803C4F20203EF
:100840001A68AEF57E7642F001021A601A6802F06C
:1008500001020192019A2AF0030256F802B040F612
:100860000002C4F20102904208D040F60042C4F2F5
:10087000010290427FF420AF012725E7002723E7FC
:1008800002B0BDE8F08F0000C26802EA01039143A4
:1008900041EA034101617047002A08BF0904016170
:1008A0007047000041F2BC40C2F20000006870478F
:1008B000002804BF01207047F0B581B0044690F8CD
:1008C0003D0028B9002084F83C00204600F090F953
:1008D000242084F83D002068016821F001010160B6
:1008E000016841F400410160016821F400410160A8
:1008F00001F04CFB636848F2A16CC0F2010C40F6B9
:100900000011C0F23D0163453CBF48F28041C0F296
:100910001E01884202D2012001B0F0BD4DF6836174
:10092000C4F21B31A0FB01122168970CD1F804E03E
:100930004FF496762EF03F0545EA92454D60774399
:1009400048F638160D6AC0F24106A7FB067625F078
:100950003F07634538BF960C721C3A430A62CA6966
:1009600048F2A0664CF6FF77C0F20106B34222EAD5
:1009700007020BD801385B00B0FBF3F001306FF3D6
:100980001F30042898BF04201BE000BFA76801386F
:1009900057B119277B43B0FBF3F001306FF31F30E1
:1009A00070B100F5804007E003EB4303B0FBF3F0C8
:1009B00001306FF31F3018B100F5004001E000BFB7
:1009C00001201043C8610868D4E9072320F0C00063
:1009D000104318430860886848F2FF3204F10C079E
:1009E00090438CCF18431043A6698860C86820F0F4
:1009F000FF0038433043C860086840F001000860D9
:100A000000202021206484F83D10206384F83E00FB
:100A100001B0F0BD2DE9F04383B01E46174689466C
:100A20000446FFF73FFF94F83D10202924D10546E6
:100A3000206800BF816989071AD5FFF733FF411B82
:100A400020681A29F6D381698907F3D5002020216F
:100A5000206384F83D1084F83E00216C41F02001B1
:100A6000216484F83C00022003B0BDE8F08300BF9D
:100A700094F83C10012903D1022003B0BDE8F083B3
:100A8000012184F83C100168C90703D1016841F0D5
:100A900001010160016840F2020821F40061016077
:100AA000212184F83D10102184F83E10002121649A
:100AB00067626685618DC0F201082185A8F1021187
:100AC000E162E16A0A9E11F5803F18BF01291DD13C
:100AD000016841F48071016020464FF0011100224D
:100AE0003346009502F066F950B120680068C005F1
:100AF00044BF4FF400702064012003B0BDE8F083D0
:100B00002069B0F5804F07D1FE2015E00829DFD01D
:100B1000216B1229DCD0DFE7062000EAD91021681A
:100B2000F030086108F10601204632462B4602F0FB
:100B300027FA0028E0D1FF20216800EA09000861B7
:100B40002046414632462B4602F01AFA0028D3D1FD
:100B50000020029020684169029180690290029809
:100B600006E000BF204631462A4602F0C5F818BB11
:100B7000208D68B3204631462A4602F06DFAD8B976
:100B8000606A2168024612F8013B0B616262628D65
:100B9000013A6285228D531E23854F697F07E1D577
:100BA0001B04DFD0437802300B616062608D013836
:100BB0006085901E2085D5E7206C04289CD1206894
:100BC000016841F400710160012003B0BDE8F083C9
:100BD0002068016841F400710160202084F83D0024
:100BE000002084F83E0084F83C0003B0BDE8F083A8
:100BF00010B586B0016845F20040C4F200008142A1
:100C00004FF00001CDE90411CDE9021102D006B088
:100C100010BD00BF41F21804C4F20204216800F5BF
:100C2000384041F008012160216801F0080101917C
:100C30000199C0210291122103910321059102A97A
:100C4000FFF71AFD606840F400106060606800F40F
:100C500000100190019806B010BD000040F20000A5
:100C600041F2BC41C2F20000C2F2000100780A6801
:100C7000104408607047000080B542F20000C4F2E2
:100C80000200016841F010010160032000F08CF8BF
:100C90000F2000F005F800F027F8002080BD0000CC
:100CA00070B540F20006C2F2000640F2240132782C
:100CB000C2F200014FF47A730968B3FBF2F2044602
:100CC000B1FBF2F1084601F083FE0F2C4FF0010555
:100CD00008D838B94FF0FF3021460022002500F037
:100CE00037F87460284670BD82B041F21800C4F233
:100CF00002000168022241F001010160016801F077
:100D0000010101910199416841F0805141604068C1
:100D100000F08050009000980420C4F201000168A7
:100D200062F31A61016002B070470000002848BFFA
:100D3000704700F01F01012202FA01F11C2202EAB1
:100D4000D0004EF20012CEF2000281507047000037
:100D500010B54EF60C5CCEF2000CDCF80030C3F39C
:100D6000022E8EF00704042C28BF0424BEF10303D6
:100D70004FF0FF3E0EFA04F438BF0023A143994020
:100D80000EFA03F39A43114300F00F0200F160439F
:100D90000901043A03F564436244002848BF02F1A4
:100DA0000C03197010BD00004EF60C51CEF200017C
:100DB0000A684FF6FF031A4060F30A2242F080608F
:100DC00040F0FD700860704780B501F0070C0CEB37
:100DD0008C0C00EBCC0C0CF1100C01EB810E090615
:100DE00000EBCE0058BF00F5A87C5AB1ACF8083033
:100DF0001B0C01210A202CF8003000208CF80C106C
:100E000080BD00BF002106202CF8003000208CF8A7
:100E10000C1080BD7047000001EB8102D0F8D43285
:100E200000EBC200426A184603F01ABA01EB8102D5
:100E3000D0F8D43200EBC200D0F86421184603F099
:100E400075BA000010B54FFA81FC4FF4A87201F09A
:100E5000070EBCF1000F48BF102290F890420244E8
:100E60000EEB8E034FEAD11C02EBC301012C81F87B
:100E700001C002F833E004BF022010BD0268012364
:100E800080F890320446104603F08CFF002084F86E
:100E9000900210BDB0B5027901F00F03934284BFF8
:100EA0000120B0BD4AB24FF4A874002A48BF1024F4
:100EB00001F0070E021990F890420EEB8E034FEAF4
:100EC000D11C02EBC301012C4FF0000481F801C0DA
:100ED0008C7002F833E004BF0220B0BD0268012329
:100EE00080F890320546104603F0EAFF204685F868
:100EF0009042B0BD01F0070101EB810100EBC100A0
:100F0000D0F86C0170470000B0B54FFA81FC4FF487
:100F1000A87401F0070EBCF1000F48BF1024044470
:100F20000EEB8E054FEAD11C04EBC50181F801C020
:100F300004F835E00A61022BCB7004BF00220A716D
:100F400090F89022012A04BF0220B0BD026801235C
:100F500080F890320446104603F0E4FD002084F847
:100F60009002B0BD10B501F0070C0CEB8C0100EB4A
:100F7000C10E00680EF5A8710024CEF86421CEF8E9
:100F80006831CEF86C418EF851418EF850C103F0B3
:100F9000EBFF002010BD0000B0B5027901F007049E
:100FA00094424FF001022BD84BB24FF4A875002B9E
:100FB00048BF10254FEAD11C48BF2146054401EB2C
:100FC000810305EBC30181F801C090F890C28A70DB
:100FD000BCF1010F05F8334004BF0220B0BD026828
:100FE0000123054680F89032104603F0A3FF24B990
:100FF000286805F5267103F061FF002285F890222C
:101000001046B0BD80B501F0070C0CEB8C0100EB75
:10101000C10101F810CF00684FF0010C01F1140775
:1010200081F824C04FF0000E87E80C400B6281F875
:1010300001C003F099FF002080BD00002DE9F04FB2
:1010400083B00446006804F0B9FB01041ED44105D6
:1010500000F1E483410400F1F383810400F108848A
:10106000C10400F10F84010500F12684810500F11F
:101070007584C00540F1E0832068B0F8441021F485
:101080008071A0F8441003B0BDE8F08F2068B0F97B
:101090004410B1F1FF3F00F3CF8304F5A871019133
:1010A00004F1100148F2C005029104F5267140F6E2
:1010B0000F78009123E000BFB0F8501094F8502151
:1010C00000EB410101EB0211B1F80C34B4F85621E8
:1010D00000996FF39F23C4F86C3104F073FB206810
:1010E000018801EA080180310180204600F0B8FD46
:1010F0002068B0F94410B1F1FF3F00F39D83B0F8D0
:10110000442012F00F090DD030F929104FEA490B95
:10111000B1F1FF3F1FFA81FA30DD5FEA0A60E7D5DF
:1011200048E100BF0188D20662D401EA080101F556
:1011300000410180B0F85010227C00EB410000EB30
:101140000210B0F80404616A6FF39F20E062084463
:10115000606220460021FFF75FFE607B0028C7D059
:10116000A06A0028C4D1607B216840F08000C0B232
:10117000A1F84C0000206073BAE700BF30F81B10E4
:1011800001EA0801803120F81B10019A09EB89015E
:1011900002EBC106317B002900F07E80F178022944
:1011A00040F08A80B0F850303178B26900EB4303E8
:1011B0005FEA4A4703EB011300F19680B3F80C7421
:1011C00000236FF39F27D21B38BF1A46B26140F24B
:1011D000A1805FEA4A6200F1AD8030F8212002EA86
:1011E00008022A4320F82120002F40F0A480C3E009
:1011F0000A053FF561AF09B2B1F1FF3F3FF778AFA4
:10120000018801EA080180310180B0F8501094F89B
:10121000502100EB410101EB0211B1F80C346FF3E6
:101220009F23C4F86C3193B1D4F8641179B1B4F848
:10123000562104F0C7FAD4F86401D4F86C110844BC
:10124000C4F8640120460021FFF7F0FD2068018802
:101250000A053FF54DAF01F44051B1F5405F3FF451
:1012600047AFB0F8501000F20C42535A6FF39F236F
:101270005352D4F860313F2BC0F0E881DE068E5A1D
:101280004FEA53174FF0FF3508BF05EB531748F2ED
:10129000C00546EA872362E2B0F85010327800EBCE
:1012A000410101EB0211B1F80C746FF39F27002F7D
:1012B00062D07169F2885AE0317830F8212002EA70
:1012C00008022A4320F8212030F82120B0F85030BD
:1012D00000EB0111520401EB430115D4B1F80C7479
:1012E0006FF39F273FBB47E0B3F8047400236FF30D
:1012F0009F27D21B38BF1A46B2611FD95FEA4A62E4
:101300002BD497BB38E000BFB1F804746FF39F276C
:101310005FBB31E030F8212043F60F731A404CF2E6
:101320008003A3F500535A4020F821205FEA4A6267
:101330007FF553AF07B37169728918E030F8212047
:1013400043F60F731A404CF28003A3F500535A4042
:1013500020F821205FEA4A62D3D530F8212002EA42
:1013600008022A4320F8212037B1716932893B46AF
:1013700004F028FA01E000BF0027F169D6E9050270
:1013800039443844F161706112B13069B84209D909
:1013900031782046FFF74AFD5FEA0A607FF5A8AE84
:1013A00008E000BF2068314603F0DEFD5FEA0A6016
:1013B0007FF59EAE206809EB890130F81B20029B67
:1013C00003EBC10602EA080101F5004120F81B10F9
:1013D000F178012922D1317B00294FF00001B16160
:1013E00000F02F815FEA4A6100F180807178012965
:1013F00000F01481002940F02481B0F850103278B8
:10140000084400EB0210B0F80C146FF39F21A0F811
:101410000C14B0F80C1441F4004106E15FEACA5123
:101420001ED4B0F85020317800EB420202EB0112DA
:10143000B2F80424B3696FF39F229B1A4FF00007A0
:1014400038BF3B46B36140F2FD807169F3691144D6
:1014500071619918F161314603F086FD48E600BFDD
:10146000B0F850303178B5695FEA4A6200EB011795
:1014700054D407F20C4E3EF8133000226FF39F2332
:10148000ED1A38BF1546B5617CD95FEA4A4708D4E2
:1014900030F821704CF2800507EA08072F4320F846
:1014A000217096F8241048F2C005012940F0A98166
:1014B000D6E904C1D6E9075719441D44674571614F
:1014C000F56180F0FB80002F00F06081BC46326245
:1014D00086F82420737848F2C005012B40F0F7808D
:1014E000B0F850302EF803C07CE100BF71780129BC
:1014F00000F09E80002940F0A480B0F850103278AF
:10150000084400EB0210B0F804146FF39F21A0F818
:101510000414B0F8041441F4004190E007F20449C7
:1015200039F8133000226FF39F23ED1A38BF1546A8
:10153000B5614DD95FEA4A4708D530F821704CF2C1
:10154000800507EA08072F4320F8217096F8241039
:1015500048F2C005012940F05481D6E90471D6E96A
:10156000075E19441D44BE457161F56180F0CE806F
:101570004FF0000CBEF1000F86F824C040F0C98087
:101580009E46C8E0737848F2C005012B6AD0002B54
:1015900071D1B0F850303B44B3F804746FF39F2717
:1015A000A3F80474B3F8047447F40047A3F8047470
:1015B000B0F850003EF800306FF39F232EF8003053
:1015C0003EF8003043F400432EF8003053E000BFF3
:1015D000737848F2C005012B54D0002B5BD1B0F8D2
:1015E000503039F803506FF39F2529F8035039F82C
:1015F000035045F4004529F80350B0F8500048F274
:10160000C0053844B0F80C246FF39F22A0F80C24D6
:10161000B0F80C2442F400423BE000BFB0F8501098
:101620003278084400EB02100021A0F80C1408E006
:10163000B0F850103278084400EB02100021A0F8F6
:10164000041431782046FFF7E7FB51E5002B00F04A
:10165000858003F00107565A07EB530346EA8323BC
:1016600082E000BFB0F850303B44A3F80424B0F847
:1016700050002EF800202046FFF7CEFB5FEA4A40DC
:1016800010D5BEE0B0F8503029F80320B0F8500073
:101690003844A0F80C242046FFF7BEFB5FEA4A401E
:1016A00040F1AF80206831784CF2800330F821207F
:1016B00002EA08021A4320F82120A2E0A7EB0C035B
:1016C0003362737848F2C005012B3FF409AF002B59
:1016D00040F08880B0F85030BCF13F0F3EF8037006
:1016E0006FF39F272EF803705AD35FEACC654FEA59
:1016F0005C173EF803504FF0FF3208BF02EB5C1757
:1017000045EA872748F2C00568E000BFAEEB070C4A
:10171000BE46C6F820C0737848F2C005012B2FD012
:10172000002B69D1B0F85030BEF13F0F39F803708B
:101730006FF39F2729F8037040D35FEACE654FEA25
:101740005E1739F803504FF0FF3208BF02EB5E1707
:1017500045EA872748F2C0054AE000BF535A48F2DD
:101760000007CFF6FF773B438B52018843F60F7299
:1017700011404CF28002A2F5805251400180B7E442
:10178000B0F8503029F803E036E000BF002786F8B3
:1017900024709C46737848F2C005012B97D19FE6D0
:1017A000BCF1000F18D00CF001073EF8035007EB16
:1017B0005C0745EA872748F2C00511E0BEF1000F3B
:1017C00014D00EF0010739F8035007EB5E0745EA25
:1017D000872748F2C0050DE03EF8037047F4004744
:1017E0002EF8037072891FFA8CF308E039F8037041
:1017F00047F4004729F8037032891FFA8EF304F08A
:1018000045F82068317840F63F7330F821201A40BF
:10181000A5F110035A4020F8212069E42068B0F8AF
:10182000441021F48061A0F84410204600F0EAF949
:1018300094F8900201280DD103B0BDE8F08F00BFED
:101840002068B0F8441021F48041A0F8441003B09F
:10185000BDE8F08F0120002584F8900265732068B0
:10186000002104F00BF884F8905203B0BDE8F08F2B
:101870002068B0F8441021F40051A0F8441003B0DF
:10188000BDE8F08F2068B0F8401021F00401A0F806
:101890004010B0F8401021F00801A0F84010204698
:1018A00000F0C2F92068B0F8441021F48051A0F88B
:1018B000441003B0BDE8F08F2168B1F800C0B1F862
:1018C00004E0B1F808808F890E8A8D8A088B8A8B94
:1018D000B1F8403043F00103A1F84030B1F8403096
:1018E00023F00103A1F84030B1F844305B050CD47B
:1018F000B1F844305B055CBFB1F844305FEA435354
:1019000003D4B1F844305B05EED5B1F8443023F48C
:101910008063A1F84430A1F800C0A1F804E0A1F868
:1019200008808F810E828D8208838A83B1F84000FF
:1019300040F00800A1F84000B1F8440020F4006035
:10194000A1F84400B1F8400040F004022046A1F89C
:10195000402003B0BDE8F04F00F0A4B92168B1F811
:10196000440020F400722046A1F8442003B0BDE8F2
:10197000F04F00F05DB90000002804BF012070475F
:10198000F0B581B0044690F8910228B9002084F89F
:101990009002204600F014F9032084F89102206898
:1019A0000021617103F080FA94E80700237B03F0C3
:1019B000F7F9002840F0F2802068002103F05CFF76
:1019C000002840F0EB8094F804E0BEF1000F00F036
:1019D000DF800EF0030CBEF1040F4FF0000237D38E
:1019E0000EF0FC03A4F1A00003210125CE1E80F817
:1019F000B0608E1E80F8D8604E1E80F8006180F8BE
:101A000028110E1D013180F8B15080F8B320C0E9D3
:101A10003022C0F8C82080F8D95080F8DB20C0E917
:101A20003A22C0F8F02080F8015180F80321C0E983
:101A30004422C0F8182180F8295180F82B21C0E9F0
:101A40004E22C0F84021A03099423146CED1F21E3C
:101A5000BCF1000F2ED004F1100002EB820100EB6C
:101A6000C105012300F831200021BCF1010F6B708A
:101A7000E970C5E90411A9611CD0551C05EB850668
:101A800000EBC607BCF1020F7B7000F83650F9700E
:101A9000C7E90411B9610DD0911C01EB810200EB83
:101AA000C203012500F8321000205D70D870C3E930
:101AB00004009861BEF1000F6AD0BEF1040F4FF030
:101AC000000235D30EF0FC0003212346CF1E83F81D
:101AD00050718F1E83F878714F1E83F8C8110D1D49
:101AE000013183F8512183F85321C3E95822C3F807
:101AF000682183F8792183F87B21C3E96222C3F846
:101B0000902183F8A12183F8A07183F8A321C3E970
:101B10006C22C3F8B82183F8C92183F8CB21C3E92B
:101B20007622C3F8E021A03381422946CED1EA1EB5
:101B3000BCF1000F2CD004F5A87002EB820300EB7F
:101B4000C3070021BCF1010F797000F83320F97050
:101B5000C7E90411B9611BD0531C03EB830700EBE9
:101B6000C706BCF1020F717000F83730F170C6E99A
:101B70000411B1610CD0911C01EB810200EBC20396
:101B800000275F7000F83210DF70C3E904779F61AF
:101B900094E80700237B03F079F928B1022084F848
:101BA0009102012001B0F0BD00206073012084F893
:101BB0009102206803F068F9002001B0F0BD000038
:101BC000006845F60041C4F20001884218BF704722
:101BD00080B582B041F21C00C4F20200016800220C
:101BE00041F4000101600068002100F40000019050
:101BF00001981420FFF7ACF8142002B0BDE8804033
:101C0000FFF794B810B504468079022818BFFEF794
:101C100019FDD4F8D402012102F08CFCD4F8D402CE
:101C2000BDE8104002F044BCD0F8D40202F06ABC17
:101C3000D0F8D40202F070BC90F89022012A04BFC0
:101C40000220704710B5012280F89022417302688B
:101C50000446104603F012FE002084F8900210BDE6
:101C6000D0F8D42200F52671104602F079BC0000AD
:101C700090F89012012904BF0220704710B5016846
:101C8000012280F890220446084603F087FD204692
:101C90000121FFF7BFF8206803F0F4F8002084F872
:101CA000900210BD10B50446D0F8D40202F0AAFC90
:101CB000A07A002808BF10BD4EF61050CEF20000EA
:101CC000016841F00601016010BD00002DE9F041FE
:101CD00082B00446007841F21C06C007C4F2020636
:101CE0004AD030685FEAC00808D4306840F08050BD
:101CF0003060306800F080500190019847F2000792
:101D0000C4F200073868C00512D4386840F4807007
:101D10003860FEF7C7FD05463868C00508D4FEF7F1
:101D2000C1FD401B6428F7D9032002B0BDE8F08153
:101D3000706810F4407012D0616801F440718842FC
:101D40000DD0706840F24042C4F24222012320F4D8
:101D5000407113600023C0071360716026D1706862
:101D6000616820F440700843B8F1000F706003D43C
:101D7000306820F0805030602068810707D556F821
:101D8000181CA26821F44041114346F8181CC006F3
:101D900007D556F8180CE16820F48000084346F88F
:101DA000180C002002B0BDE8F08100BFFEF77AFDFC
:101DB000054641F2883700BF70688007CFD4FEF730
:101DC00071FD401BB8424FF00300F5D9EAE700006F
:101DD000002804BF012070472DE9F04381B042F292
:101DE0000008C4F202080446D8F800000D4600F0CE
:101DF000070081420CD9D8F8000020F007002843E2
:101E0000C8F80000D8F8000000F00700A8426CD124
:101E1000206841F204098107C4F2020917D541077D
:101E200005D5D9F8001041F4E061C9F800100107A8
:101E300005D5D9F8001041F46051C9F80010D9F85F
:101E40000010A26821F0F0011143C9F80010C0078A
:101E500042D1D8F8000000F0070085420CD2D8F833
:101E6000000020F007002843C8F80000D8F8000060
:101E700000F00700A84238D12068410707D5D9F8FB
:101E80000010E26821F4E0611143C9F80010000776
:101E900008D5D9F80000216920F4605040EAC1005B
:101EA000C9F80000D9F8002002F00C00082841F21F
:101EB0000020C0F27A004DD145F66973C2F3834128
:101EC000C0F60003595CD20338D440F60010C0F2CB
:101ED0003D0048433EE000BF606859F8041C0228FA
:101EE00008D0012826D1890306D4012001B0BDE81D
:101EF000F08300BF8901F8D5D9F8001021F0030163
:101F00000843C9F80000FEF7CDFC064641F28837C9
:101F1000D9F80000616800F00C00B0EB810F98D098
:101F2000FEF7C0FC801BB842F2D9032001B0BDE827
:101F3000F08300BF8907D8D5DEE700BFD9F80020BD
:101F400045F66773C2F34042C0F600039A5C48430B
:101F5000B0FBF2F0D9F8001045F64F72C1F303114F
:101F6000C0F60002515C40F2240220FA01F140F276
:101F70000400C2F200000068C2F200021160FEF725
:101F80008FFE002001B0BDE8F083000040F2240085
:101F900041F20401C2F20000C4F2020100680968C3
:101FA00045F65F72C1F30221C0F60002515CC840E1
:101FB0007047000040F2240041F20401C2F2000028
:101FC000C4F202010068096845F65F72C1F3C221DC
:101FD000C0F60002515CC84070470000002804BFF2
:101FE000012070472DE9F04182B00446007841F2AB
:101FF0000006C007C4F202060CD0706800F00C00A6
:10200000042840F081803068800303D56068002890
:1020100000F04681207880071BD5706810F00C0F07
:1020200009D0706800F00C00082840F087807068C4
:10203000C00300F183803068800703D52069012840
:1020400040F02E813068616920F0F80040EAC1005C
:1020500030602078000713D4207840072CD4E5693D
:10206000002D00F01881706800F00C00082840F086
:10207000A780012D40F00481012002B0BDE8F0816D
:10208000A069002800F084800020C4F242200121D1
:10209000C0F88014FEF706FC054600BF706A800792
:1020A00000F1B280FEF7FEFB401B0228F6D90320A8
:1020B00002B0BDE8F08100BFF0695FEAC00808D453
:1020C000F06940F08050F061F06900F080500090BD
:1020D000009847F20007C4F200073868C00549D4E9
:1020E000386840F480703860FEF7DCFB054600BFBE
:1020F0003868C0053ED4FEF7D5FB401B6428F7D9ED
:10210000032002B0BDE8F081706800F00C000828E0
:1021100003D17068C0033FF576AF6168306800296D
:1021200000F00C81B1F5A02F00F00081B1F5803FE7
:1021300040F01A8140F480301CE100BF2069002883
:1021400040F20000C4F2422000F0888001210160CA
:10215000FEF7A8FB054600BF306880073FF572AF69
:10216000FEF7A0FB401B0228F6D9032002B0BDE811
:10217000F08100BFE168306A002900F09D800529E8
:1021800000F09280012940F0AF8040F00100B1E002
:102190000020C4F242200021C0F88014FEF782FB28
:1021A000054600BF706A80077FF556AFFEF77AFBE1
:1021B000401B0228F6D9032002B0BDE8F08100BF21
:1021C0000027C4F2422700203866FEF76BFB022D81
:1021D00005460DD13068800140F1DE80FEF762FBDC
:1021E000401B02284FF00300F4D902B0BDE8F08193
:1021F000306880014FD5FEF755FB401B02284FF099
:102200000300F5D9F1E700BF40F22400C2F200005C
:10221000006844F6D351C1F26201A0FB0101480AF3
:10222000019000BF00BF0198411E002801913FF4BA
:1022300013AF00BF0198411E002801913FF40CAF7D
:1022400000BF0198411E002801913FF405AF00BF77
:102250000198411E00280191E4D1FDE600210160B2
:10226000FEF720FB054600BF306880077FF5F1AE22
:10227000FEF718FB401B02284FF00300F4D9B4E727
:102280007068216A00F480328A4209D1616A00F4E0
:102290007010884204D1002002B0BDE8F08100BF78
:1022A000012002B0BDE8F08140F004003062306AE5
:1022B00040F001001EE000BF20F001003062306AF3
:1022C00020F004003062FEF7EDFA054641F288374F
:1022D000306A800720D5FEF7E5FA401BB8424FF080
:1022E0000300F5D981E700BF20F001003062306AB9
:1022F00020F004003062FEF7D5FA054641F2883737
:10230000306A800708D4FEF7CDFA401BB842F7D9EF
:10231000032002B0BDE8F081B8F1000F3FF59FAE99
:10232000F06920F08050F06199E600BF40F4802011
:102330003060306840F480301CE000BF20F4803012
:102340003060306820F480203060FEF7ABFA05463C
:10235000306880037FF55EAEFEF7A4FA401B642868
:102360004FF00300F4D940E720F48030306030684B
:1023700020F480203060FEF795FA0546306880032F
:102380003FF548AEFEF78EFA401B6428F6D90320CD
:1023900002B0BDE8F08100BF206AB0F5803F05D1F2
:1023A0007168A26821F40031114371607168626A3A
:1023B00021F4741111430843706001203866FEF760
:1023C00071FA0446306880013FF565AFFEF76AFA9E
:1023D000001B02284FF00300F4D906E770B528B1BE
:1023E000416A29B100210161142106E0012070BD7C
:1023F0004168B1F5827F02D01C21002242500026A4
:10240000866290F8511029B980F85060054600F0B6
:1024100039F82846022180F8511090E82E0002F485
:1024200082720C6803F4044324F040040C601A44E4
:1024300005F4006305691A4405F0020345691A446E
:1024400005F001038569C4691A4405F400731A4450
:1024500004F03803046A1A4404F08003846A1A43BF
:1024600004F400531A430A60042202EA15424A6047
:10247000CA6922F40062CA610121466580F85110E0
:10248000304670BD70B586B040F60004C4F2010459
:10249000006804F52051002688420596CDE90366C0
:1024A000029601D006B070BD41F21800C4F20200DD
:1024B000016802AD41F480510160016801F480516E
:1024C00001910199016841F0040101600068294609
:1024D00000F0040001900198A020029002200390D7
:1024E000032005902046FEF7C7F84020CDE90206FC
:1024F000204629460496FEF7BFF806B070BD0000DE
:102500002DE9F04182B01D4616460F460446FEF7FF
:10251000C9F994F8511001290ED18046002F4FF0CF
:10252000010018BF002E03D102B0BDE8F08100BF4A
:1025300094F85000012803D1022002B0BDE8F081D8
:10254000012084F850000320002184F851006165C7
:102550002763A686E686A163A187E187A068216438
:10256000B0F5004F2068616407D1016821F0400197
:102570000160016841F4804101600168490603D4AB
:10258000016841F0400101606168731EE268B1FAC0
:1025900081F1B3FA83F349095B09B2F5006F41EAAF
:1025A000030139D131B137F8021BC1602763E08ED6
:1025B0000138E086E08E002870D0681C0BD11AE04C
:1025C000216B31F8022BC2602163E08E0138E08676
:1025D000E08E002862D0206881688907F0D4FEF779
:1025E00061F9A0EB0800A842F2D338E0FEF75AF9EF
:1025F000E08E002852D0206881688907F6D5216BCB
:1026000031F8022BC2602163E08E0138E086E08E53
:102610000028F0D142E000BF39B139780173206B56
:1026200001302063E08E0138E086E08EB0B3681C94
:102630000BD123E0216B09780173206B01302063FB
:10264000E08E0138E086E08E40B32068816889071B
:10265000F0D4FEF727F9A0EB0800A842F3D301203D
:1026600084F85100002084F85000032002B0BDE837
:10267000F08100BFFEF716F9E08E78B1206881681E
:102680008907F7D5216B09780173206B013020632E
:10269000E08E0138E086E08E0028EFD1204602214E
:1026A00001222B46CDF8008001F0C0F940B9204648
:1026B000802100222B46CDF8008001F0B7F928B127
:1026C000606D40F02000606520206065A06838B92A
:1026D000002001902068C1680191806801900198F4
:1026E000012084F85100002084F85000606D00281B
:1026F00018BF012002B0BDE8F08100002DE9F043D1
:1027000083B01E4615460F460446FEF7CBF894F8F4
:1027100051108146012909D1002F4FF0010018BF47
:10272000002D0FD103B0BDE8F08300BF6068B0F5A5
:10273000827F0DD104294FF00200F3D1A168002956
:10274000EAD0EFE7002EEDD094F85000012803D135
:10275000022003B0BDE8F083012084F8500094F813
:102760005100002104281CBF052084F85100616538
:10277000A563E687A6872763E6862068A686216488
:1027800061640168490603D4016841F040010160B9
:102790006168731EE268B1FA81F1B3FA83F3DDF880
:1027A000288049095B09B2F5006F41EA030165D150
:1027B00031B137F8021BC1602763E08E0138E08633
:1027C000012518F1010032D102E000BFFEF76AF8DE
:1027D000E08E18B9E08F002800F0B880206881688A
:1027E00089070CD5E18E51B1012D08D1216B00254F
:1027F00031F8022BC2602163E18E0139E1868168E4
:10280000C907E3D0E18F0029E0D0C068A16B0125A2
:1028100021F8020BA163E08F0138E087D6E700BF03
:10282000FEF740F8A0EB0900404580F0AF80E08E55
:1028300018B9E08F002800F0898020688168890736
:102840000CD5E18E51B1012D08D1216B002531F855
:10285000022BC2602163E18E0139E1868168C907DC
:10286000DED0E18F0029DBD0C068A16B012521F803
:10287000020BA163E08F0138E087D1E739B13978E5
:102880000173206B01302063E08E0138E086012562
:1028900018F1010032D101E0FEF704F8E08E10B922
:1028A000E08F002852D02068816889070ED5E18E1C
:1028B00061B1012D0AD1216B002509780173216BCB
:1028C000206801312163E18E0139E1868168C90701
:1028D000E2D0E18F0029DFD0C068A16B012508702C
:1028E000A06B0130A063E08F0138E087D4E700BF20
:1028F000FDF7D8FFA0EB0900404547D2E08E08B9AC
:10290000E08F18B32068816889070ED5E18E61B128
:10291000012D0AD1216B002509780173216B2068F4
:1029200001312163E18E0139E1868168C907DFD079
:10293000E18F0029DCD0C068A16B01250870A06B75
:102940000130A063E08F0138E087D1E72046022103
:1029500001224346CDF8009001F068F840B92046C6
:10296000802100224346CDF8009001F05FF8B8B115
:10297000606D40F02000606520206065002084F8D4
:102980005000012003B0BDE8F08300BF012084F8AF
:102990005100002084F85000032003B0BDE8F0830C
:1029A000A06838B9002002902068C1680291806850
:1029B00002900298012084F85100002084F8500011
:1029C000606D002818BF012003B0BDE8F08300004F
:1029D000411E0020B0EB116F1CBF012070474EF26A
:1029E0001002CEF2000251604EF62351CEF20001E9
:1029F000F0230B700721906011607047002804BF1E
:102A00000120704710B5044690F8410028B9002015
:102A100084F84000204600F063F8242084F8410048
:102A20002068D4E90212C36823F40053C360036929
:102A300023F440531A430261D4E904231143C268CA
:102A4000194341F20C639A431143C1604169A26981
:102A500021F44071114343F60002C4F20102904296
:102A6000416103D0FFF792FA02E000BFFFF7A2FA3C
:102A7000D4E90023192148439900B0FBF1F048F252
:102A80001F5CC5F2EB1CA0FB0C314FF69C7349098F
:102A9000C0F6FF7301FB0300322303EB0010A0FB21
:102AA0000C03F02000EA531000EB0110C3F34311B4
:102AB000084490601069202120F490401061506912
:102AC00020F02A005061D06840F40050D06000200F
:102AD000606484F8411084F84210606310BD000007
:102AE00070B586B040F60004C4F20104006804F535
:102AF0004051002688420596CDE90366029601D032
:102B000006B070BD41F21800C4F20200016802ADC7
:102B100041F480410160016801F480410191019913
:102B2000016841F0040101600068294600F00400DA
:102B3000019001984FF4007002900220039003204E
:102B400005902046FDF798FD4FF48060CDE9020620
:102B5000204629460496FDF78FFD06B070BD0000A3
:102B60002DE9F04381B0044690F84100202809D1B6
:102B700000294FF0010018BF002A07D101B0BDE8BD
:102B8000F08300BF022001B0BDE8F0830020606444
:102B900021201D460E4684F841001746FDF782FEAF
:102BA000A784E784A1688146B1F5805F02D12069DE
:102BB00000285DD037460020E28C2168002A5DD0D5
:102BC0006A1C24D0002D4AD0804600BF0868000649
:102BD00008D4FDF767FEA0EB0900A8427AD8216867
:102BE000C868F3E717B117F8010B04E038F8020BD7
:102BF00000276FF35F204860E08C0138E084E08CB0
:102C00000028E3D13AE000BF0A68120609D40A6836
:102C1000120606D40A6812065CBF0A685FEA0262FE
:102C2000F2D51FB117F8012B05E000BF30F8022BD9
:102C300000276FF35F224A60E28C013AE284E28C63
:102C4000002AE4D11AE000BF30F8022B00276FF30E
:102C50005F224A60E28C013AE284E28C72B10A6837
:102C6000120635D5002FEFD017F8012BF1E700BF82
:102C700000273046E28C2168002AA1D1086840066E
:102C80001ED42DB3681C14D1086840062AD40868E5
:102C9000400627D40868400624D4086840064FF050
:102CA0000000F1D50DE000BF2068C1680068400653
:102CB00018D4FDF7F7FDA0EB0900A842F4D909E00C
:102CC0000020202184F8411001B0BDE8F08300BF4E
:102CD000FDF7E8FD0320202184F8411001B0BDE894
:102CE000F08300BF0020202184F8411001B0BDE82E
:102CF000F0830000FEE7000070B50368044653F857
:102D0000140F400711D40E46481C29D086BB00BFC3
:102D10001868400527D4FDF7C5FD236853F8140F44
:102D2000400737D518684007F2D5002070BD00BFB6
:102D300018684007F9D41868400514D4186840078B
:102D4000F3D4186840050ED418684007EDD418680D
:102D5000400508D4186840074FF0000048BF70BD18
:102D600018684005E4D56FF480601860042012E014
:102D7000154603E053F8140F4007D6D418684005F1
:102D8000F1D4FDF78FFD401B2368B042F2D958699A
:102D90004007EFD4202000212022216384F83D2029
:102DA00084F83E10226C10432064012084F83C100B
:102DB00070BD00002DE9F041054600681E4614462E
:102DC00001F47F0201338FB242D0DDF81880B2F5F2
:102DD000803F40F0878040693840C01BB0FA80F0E7
:102DE0004009844240F0C8804EB924E04069384030
:102DF000C01BB0FA80F04009844240F0BD80FDF76E
:102E000051FDA0EB08012868B142EFD94169394072
:102E1000C91BB1FA81F149098C42E7D19BE000BF9F
:102E200040693840C01BB0FA80F0400984424FF03E
:102E3000000040F0A280FDF735FD28684169394067
:102E4000C91BB1FA81F149098C42E9D183E000BF85
:102E5000B2F5803F24D100BF41693940C91BB1FAA6
:102E600081F149098C4240F0878041693940C91B92
:102E7000B1FA81F149098C4240F07E8041693940C4
:102E8000C91BB1FA81F149098C4275D141693940B8
:102E9000C91BB1FA81F149098C42DDD06CE000BF59
:102EA00081693940C91BB1FA81F149098C4263D16A
:102EB00081693940C91BB1FA81F149098C425BD162
:102EC00081693940C91BB1FA81F149098C4253D15A
:102ED00081693940C91BB1FA81F149098C42DFD0BF
:102EE0004AE000BF80693840C01BB0FA80F040095A
:102EF000844241D146B923E080693840C01BB0FA12
:102F000080F04009844237D1FDF7CCFCA0EB0801EA
:102F10002868B142F0D981693940C91BB1FA81F101
:102F200049098C42E8D116E080693840C01BB0FAEC
:102F300080F0400984424FF0000018BFBDE8F081E6
:102F4000FDF7B0FC286881693940C91BB1FA81F1ED
:102F500049098C42E8D100202021286385F83D10E2
:102F600085F83E00296C41F02001296485F83C0079
:102F70000120BDE8F08100BF0020BDE8F081000025
:102F8000F0B581B0044600681D4643698FB203EA7C
:102F90000701B94202D1002001B0F0BD41691646D7
:102FA00001323CD0490512D47EB300BFFDF77AFC54
:102FB000411B2068B14203D941693940B9422BD144
:102FC00041693940B942E6D041694905EED5016809
:102FD00041F4007101606FF48061416104200021BF
:102FE0002022216384F83D2084F83E10226C104397
:102FF000206484F83C10012001B0F0BD41693940E3
:10300000B942C8D041694905E1D4FDF74BFC2068BD
:1030100041693940B942F1D02020E0E741694905D2
:10302000D5D441693940B942B5D041694905CED4BA
:1030300041693940B942AED041694905C7D44169B7
:103040003940B942A7D041694905C0D441693940E6
:10305000B942E3D19FE7000070B50368044653F816
:10306000140F000611D40E46481C29D086BB00BFA1
:103070001868400527D4FDF715FC236853F8140F92
:10308000000637D518680006F2D5002070BD00BFD5
:1030900018680006F9D41868400514D418680006AA
:1030A000F3D4186840050ED418680006EDD41868EB
:1030B000400508D4186800064FF0000048BF70BDF6
:1030C00018684005E4D56FF480601860042012E0B1
:1030D000154603E053F8140F0006D6D418684005CF
:1030E000F1D4FDF7DFFB401B2368B042F2D95869E9
:1030F0000006EFD4202000212022216384F83D2007
:1031000084F83E10226C10432064012084F83C10A7
:1031100070BD000070B582B040F600040020C4F21B
:1031200001048DF80500204610210022FDF7B4FBB4
:1031300041F26445A820C2F200058DF807000DF1A8
:1031400007012846012264236426FFF7D9F90DF10F
:1031500005010DF10602284601230096FFF7CEFA7D
:10316000204610210122FDF797FB9DF806008007FD
:1031700002D002B070BD00BF1420032100F0F6F9A8
:1031800002B070BD70B582B040F600050446002064
:10319000C4F201058DF80600284610210022FDF733
:1031A0007BFB41F264461A20C2F200068DF807004C
:1031B0000DF10701304601226423FFF7A1F90DF15B
:1031C0000601304601226423FFF79AF928461021B0
:1031D0000122FDF761FB42F29300208001AE0C203A
:1031E000214602222346009600F014FA10B102B0E4
:1031F00070BD00BF20786178A278E37848405040E5
:1032000021795840401A18BF0120400002B070BD1B
:1032100070B582B040F6000504460720C4F20105EF
:103220008DF80600284610210022FDF735FB41F2FB
:1032300064461A20C2F200068DF807000DF107015E
:10324000304601226423FFF75BF90DF10601304699
:1032500001226423FFF754F9284610210122FDF7CB
:103260001BFB2620207001AE0C20214601222346A4
:10327000009600F0CFF900284FF0020006D1BDF80B
:103280000410102902D12046FFF77CFF02B070BD68
:103290002DE9F04184B040F6000805460020C4F254
:1032A00001080F468DF80B00404610210022FDF763
:1032B000F3FA802041F2644640EA4500C2F200067B
:1032C0008DF80D000DF10D013046012264236424B8
:1032D000FFF716F90DF10B0103AA30460123009404
:1032E000FFF70CFA404610210122FDF7D5FA9DF8B0
:1032F0000C001021B8438DF80E0040460022FDF767
:10330000CBFA7E2000EA45008DF80F000DF10F0189
:10331000304601226423FFF7F3F80DF10E01304629
:1033200001226423FFF7ECF8404610210122FDF74B
:10333000B3FA04B0BDE8F08170B584B040F6000483
:10334000C4F20104204608210122FDF7A5FA0A2053
:10335000FDF77EF90F208DF8020020461021002293
:103360000026FDF799FA41F264450220C2F20005F9
:103370008DF803000DF10301284601226423FFF7B5
:10338000BFF80DF10201284601226423FFF7B8F8C7
:10339000204610210122FDF77FFA3220FDF758F96F
:1033A0008D208DF80400204610210022FDF774FACC
:1033B00054208DF805000DF10501284601226423F3
:1033C000FFF79EF801A9284601226423FFF798F829
:1033D000204610210122FDF75FFA3E208DF80600FD
:1033E000204610210022FDF757FA56208DF80700DD
:1033F0000DF10701284601226423FFF781F80DF142
:103400000601284601226423FFF77AF8204610219E
:103410000122FDF741FA2046102100228DF80860B4
:10342000FDF73AFA58208DF809000DF109012846F8
:1034300001226423FFF764F802A9284601226423CD
:10344000FFF75EF8204610210122FDF725FA1E2025
:103450008DF80A00204610210022FDF71DFA5A209F
:103460008DF80B000DF10B01284601226423FFF7B4
:1034700047F80DF10A01284601226423FFF740F8BE
:10348000204610210122FDF707FA40208DF80C009C
:10349000204610210022FDF7FFF92A208DF80D00AB
:1034A0000DF10D01284601226423FFF729F803A935
:1034B000284601226423FFF723F820461021012229
:1034C000FDF7EAF93D208DF80E002046102100227C
:1034D000FDF7E2F922208DF80F000DF10F012846CB
:1034E00001226423FFF70CF80DF10E01284601229A
:1034F0006423FFF705F8204610210122FDF7CCF9DF
:10350000FFF708FE04B070BD70B582B040F600044D
:1035100005460020C4F201048DF805002046102164
:103520000022FDF7B9F9802040EA450041F26445E8
:10353000C2F200058DF807000DF1070128460122AF
:1035400064236426FEF7DCFF0DF105010DF1060290
:10355000284601230096FFF7D1F8204610210122CA
:10356000FDF79AF99DF8060002B070BD2DE9F04113
:1035700084B040F6000805460020C4F201080F465A
:103580008DF80B00404610210022FDF785F98020C0
:1035900041F2644640EA4500C2F200068DF80D0093
:1035A0000DF10D013046012264236424FEF7A8FFCB
:1035B0000DF10B0103AA304601230094FFF79EF89A
:1035C000404610210122FDF767F99DF80C001021FB
:1035D00038438DF80E0040460022FDF75DF97E204D
:1035E00000EA45008DF80F000DF10F013046012271
:1035F0006423FEF785FF0DF10E013046012264239E
:10360000FEF77EFF404610210122FDF745F904B088
:10361000BDE8F0812DE9F04F87B0174682460C28AF
:103620008946029306D0BAF10E0F07D111200590FA
:10363000122006E031200590772002E0012005905D
:10364000002040F6000BC4F2010B039080308DF88F
:103650001A005846102100220024FDF71DF941F2FE
:1036600064450420C2F200058DF81B000DF11B011A
:10367000284601226423FEF743FF0DF11A01284674
:1036800001226423FEF73CFF584610210122FDF77A
:1036900003F904208021FFF7FBFD0A208021FFF7BA
:1036A00065FF5846102100228DF81A40FDF7F4F806
:1036B00002208DF81B000DF11B0128460122642316
:1036C000FEF71EFF0DF11A01284601226423FEF7C2
:1036D00017FF584610210122FDF7DEF857B341F2DB
:1036E0006445A9F101044FF01209C2F200050DF181
:1036F0001B080DF11A0600BF14F8010F10218DF8F8
:103700001A0058460022FDF7C7F828464146012214
:1037100064238DF81B90FEF7F3FE28463146012204
:103720006423FEF7EDFE584610210122FDF7B4F8A0
:10373000013FE1D15846102100228DF81AA0FDF773
:10374000ABF841F264440220C2F200048DF81B0081
:103750000DF11B01204601226423FEF7D1FE0DF17D
:103760001A01204601226423FEF7CAFE58461021A2
:103770000122FDF791F8BAF10C0FCDF810A003D19A
:103780000D208021FFF7F2FE41F2644540F600066D
:103790004FF4FA69C2F200050DF11B0B0DF1190A85
:1037A0000DF11A04C4F20106642700BF00208DF851
:1037B0001900304610210022FDF76EF888208DF8A0
:1037C0001B002846594601226423FEF799FE28462D
:1037D0005146224601230097FEF790FF3046102104
:1037E0000122FDF759F8A9F101095FEA094000F04B
:1037F000D5809DF81A80059810EA080FD6D00D20C4
:103800008021FFF745FD40F600070020C4F20107C4
:103810008DF81900384610210022FDF73DF841F2DD
:1038200064448C20C2F200048DF81B000DF11B01D2
:103830002046012264236425FEF762FE0DF1190182
:103840000DF11A02204601230095FEF757FF384676
:1038500010210122FDF720F89DF81A0010F01B0F2F
:1038600040F0A0800398049900EA08000C2900F0B9
:10387000010040F0988005904FF000093846102173
:1038800000228DF81990FDF707F841F26446942064
:10389000C2F200068DF81B000DF11B01304601221B
:1038A00064234FF0640AFEF72BFE0DF11A0B0DF1A5
:1038B000190130465A460123CDF800A0FEF71EFF3D
:1038C000384610210122FCF7E7FF9DF81A803846A0
:1038D0001021002200248DF81990FCF7DDFF9820BC
:1038E0008DF81B000DF11B01304601226423FEF709
:1038F00007FE0DF119010DF11A023046012364256E
:10390000CDF800A0FEF7FAFE384610210122FCF7A0
:10391000C3FF9DF81A00109910F0070040EAC80094
:10392000A0F1080008BF4FEAC80008800120B8F1E4
:10393000010F98BF80461020B8F1100F28BF8046B5
:1039400002984FF09209A0F1010A00BF38461021F9
:1039500000228DF81940FCF79FFF30460DF11B0146
:10396000012264238DF81B90FEF7CAFD30460DF14D
:1039700019015A4601230095FEF7C0FE3846102172
:103980000122FCF789FF9DF81A00B8F101080AF836
:10399000010FDBD1059807B0BDE8F08F0D20802125
:1039A000FFF776FC022007B0BDE8F08F80B540F647
:1039B000746040F20801C2F20000C2F2000100226D
:1039C00000F012FC002818BFFCF73CFE40F67460C3
:1039D00040F22801C2F20000C2F2000100F03AFEFB
:1039E000002818BFFCF72EFE40F6746040F24C1120
:1039F000C2F20000C2F2000100F09EF9002818BFD8
:103A0000FCF720FE40F67460C2F2000000F038FEC1
:103A1000002808BF80BDBDE88040FCF713BE000051
:103A2000FEE70000FEE70000704700002DE9F043CC
:103A300081B0089C984615460E468146FCF732FF39
:103A4000201A00EB0804FCF72DFF40F22401C2F21B
:103A500000010968C1F3CB3161430091D9F800102E
:103A60008A683240921BB2FA82F2520995423DD0E6
:103A7000074618F1010031D0FCF714FFC01BA0422B
:103A800038D2009800990028A1F101010091D9F8DD
:103A90000010896808BF044601EA0600801BB0FADE
:103AA00080F040098542E7D120E000BF88683040BF
:103AB000801BB0FA80F04009854217D088683040FA
:103AC000801BB0FA80F0400985420FD088683040F2
:103AD000801BB0FA80F04009854207D088683040EA
:103AE000801BB0FA80F040098542DFD1002001B090
:103AF000BDE8F083D9E900014268B1F5827F22F088
:103B0000E00242600BD1D9F80810B1F5004F02D0A5
:103B1000B1F5806F03D1016821F040010160D9F84F
:103B20002810B1F5005F07D1016821F40051016050
:103B3000016841F400510160012089F85100002022
:103B400089F85000032001B0BDE8F0837047000001
:103B5000FDF784B870470000D0F8B822002A04BFEF
:103B60000220704710B501EB810300EB830C5CF879
:103B70001C3F63B1D0F8C0E201EB81040EEBC4043A
:103B8000D4F820E0B3FBFEF404FB1E3323B1002085
:103B9000C2F8140210BD00BF00220023CCF80020A0
:103BA00000F03AFD002010BDB0B5D0F8B852044680
:103BB00000F0FAFBD4F8B812C5F80C0251B1D4F8F1
:103BC000BC0205F50371C268D5F8040290470020D5
:103BD000B0BD00BF0220B0BDB0B58121044600F0E9
:103BE0002DFB002520460121E56200F027FB204641
:103BF0008221C4F86C5100F021FBD4F8B80225648E
:103C000048B1D4F8BC0240688047D4F8B80200F04C
:103C100081FFC4F8B8520020B0BD0000D0F8BC123B
:103C200081B110B5D0F8B84294F80002FF2807D04F
:103C30008B6894F8012221469847FF2084F80002FF
:103C4000BDE8104000207047014640F2E8000A221B
:103C5000C2F200000A807047014640F26000432231
:103C6000C2F200000A807047014640F2A4004322DD
:103C7000C2F200000A807047014640F2F40043227D
:103C8000C2F200000A807047F0B581B00546007CA2
:103C90004027002808BF4FF40077284681210222E0
:103CA0003B46402400F0DEFB01262846012102228B
:103CB0003B46EE6200F0D6FB284682210322082311
:103CC000C5F86C6100F0CEFB4FF407702E6400F075
:103CD00023FFC5F8B802A8B10746D5F8BC020068B2
:103CE00080470026C7F81462C7F81862287CD7F806
:103CF0000422002808BF4FF40074284601212346FF
:103D000000F0C4FB304601B0F0BD0000D0F8B8129E
:103D1000002904BF0220704780B590F810C0D1F888
:103D2000042240230121BCF1000F08BF4FF40073AF
:103D300000F0ACFB002080BD00290EBF0220C0F8BF
:103D4000BC12002070470000D0F8B8220020C2F852
:103D500004127047D0F8B8320020C3F80812C3F834
:103D600010227047F0B581B091F90030D0F8B84218
:103D7000002513F060028DF80350ADF8005011D00B
:103D8000202A3BD1CA88FAB1B3F1FF3F3CDD497824
:103D900084F8012284F80012214600F06BF800201C
:103DA00001B0F0BD4A780B2A24D00A2A16D02ABBCB
:103DB00090F89C22032A21D16946022200F074F86F
:103DC000002001B0F0BD00BFD0F8BC020022836823
:103DD00048789847002001B0F0BD00BF90F89C22C1
:103DE000032A0BD10DF10301012200F05DF8002040
:103DF00001B0F0BD90F89C22032AD0D000F02EF83C
:103E0000022001B0F0BD00BFD0F8BC3206469D686C
:103E10004B780F4618462146A847FA883046214677
:103E200000F042F8002001B0F0BD000080B5D0F8ED
:103E3000B42252689047002080BD000080B5134630
:103E40000A46002100F022FB002080BD80B5134609
:103E50000A46002100F0E0FB002080BD10B5802163
:103E6000044600F0ABFB20460021BDE8104000F006
:103E7000A5BB000080B513460A460321C0F8941282
:103E80000021C0E9573300F001FB002080BD000095
:103E900080B50521C0F8941200210022002300F013
:103EA000F5FA002080BD000080B513460A460221C5
:103EB000C0F894120021C0E9073300F0ADFB0020E8
:103EC00080BD000080B50421C0F8941200210022BA
:103ED000002300F0A1FB002080BD000010B540F2DF
:103EE0005424C2F200040A4602A0214600F012F94E
:103EF000204610BD43444320436F6E66696700004F
:103F000040F238101222C2F200000A80704700000E
:103F100010B540F25424C2F200040A4602A0214621
:103F200000F0F8F8204610BD43444320496E746504
:103F3000726661636500000040F25C100422C2F208
:103F400000000A807047000010B540F25424C2F20D
:103F500000040A4602A0214600F0DCF8204610BD0D
:103F600053544D6963726F656C656374726F6E69EB
:103F70006373000010B540F25424C2F200040A46F4
:103F800002A0214600F0C6F8204610BD53544D3320
:103F900032205669727475616C20436F6D506F7278
:103FA000740000004FF2E870C1F6FF700268836889
:103FB0004FF01A0C9B18A1F800C000F0A680B0B515
:103FC0004FF0370C1A0F0CEB13714068B3F1204F10
:103FD00038BF02F1300140F26012C2F2000291706B
:103FE00019014FF0000E0CEB117582F803E0C3F3DA
:103FF0000364B1F1204F38BF04F130051902157187
:104000000CEB117582F805E0C3F30354B1F1204FB6
:1040100038BF04F13005190395710CEB117582F866
:1040200007E0C3F30344B1F1204F38BF04F130057A
:10403000190415720CEB117582F809E0C3F303340F
:10404000B1F1204F38BF04F13005190595720CEB22
:10405000117582F80BE0C3F30324B1F1204F38BF90
:1040600004F1300519061573C3F303140CEB117535
:10407000B1F1204F4FEA037103F00F0382F80DE016
:1040800038BF04F1300503F13704957382F80FE06F
:10409000B1F1204F38BF03F13004010F0CEB107366
:1040A000147482F811E0B0F1204F38BF01F13003F1
:1040B00001010CEB1174937482F813E0C0F30363F5
:1040C000B1F1204F38BF03F1300401021475C0F381
:1040D00003530CEB1174B1F1204F4FEA003182F819
:1040E00015E038BF03F130040CEB1173947582F8BE
:1040F00017E0C0F30340B1F1204F38BF00F13003A7
:10410000137682F819E0BDE8B04040F26010C2F2C8
:1041100000007047002808BF704710B50378ABB1A6
:1041200000F1020E4FF0000C1EF8013C93B19EF816
:1041300000309BB19EF80130A3B19EF802300CF123
:10414000040C002B0EF1040EEED10DE04FF0000C2C
:104150000AE000BF4CF0010C06E000BF4CF0020C7E
:1041600002E000BF4CF0030C5FFA8CFC022303EB6F
:104170004C03138003220B704A7090F800E0BEF1EC
:10418000000F2DD0023002224FF0000CD3B2CC1819
:1041900001F803E084F801C010F8013C03B3941C5B
:1041A000E4B201EB040E0B558EF801C00378BBB1ED
:1041B000141DE4B201EB040E0B558EF801C04378D8
:1041C00073B1941DE4B201EB040E0B558EF801C0DF
:1041D00090F802E00832BEF1000F00F10400D5D1E2
:1041E000BDE8104070470000002804BF022070475F
:1041F000D0F8B432002B1CBF0023C0F8B432002921
:1042000018BFC0F8B01280B5012180F89C1202706E
:1042100000F0CEF8002080BD80B5D0F8C002FCF7D9
:1042200039FE40F200220223C100C0F2012204281C
:1042300038BF22FA01F3D8B280BD000080B5D0F8B3
:10424000C002FCF7FFFD40F200220223C100C0F2D1
:104250000122042838BF22FA01F3D8B280BD000041
:10426000B0B569B1D0F8B42252693AB190F89C3235
:10427000032B03D1904700210846B0BD0220B0BDFA
:10428000D0F89412002918BF04290FD180210446C8
:1042900000F094F9204690F8A01201294FF0000197
:1042A000EAD180F8A0120846B0BD00BF0229F2D1C1
:1042B000D0E908318B420FD9591A8BB201621146ED
:1042C0001A460446FFF7C2FD2046002100220023C3
:1042D00000F0DCF8DEE700BFC2698A4212D3B2FB0D
:1042E000F1F303FB112169B9D0F898128A4209D27F
:1042F0000021002204460025FFF7A8FDC4F89852CB
:10430000E2E700BFD0F8B412C96831B190F89C223E
:10431000032A02D10446884720468021044600F043
:104320004DF92046FFF7B4FDB4E7000010B559B1D0
:10433000D0F8B42292692AB190F89C32032B01D1B3
:1043400090472EE0022010BDD0F8941200240529D9
:1043500012D0032926D1D0E958318B4214D95B1AE7
:10436000C0F860318B4238BF19468BB211461A46ED
:10437000FFF764FD15E000BF0021C0F8944200F093
:104380001DF9204610BD00BFD0F8B412096931B143
:1043900090F89C22032A02D1044688472046FFF762
:1043A00091FD0024204610BDD0F8C002FCF7A2BD4C
:1043B00010B5044641F28C1045F60041C2F20000EF
:1043C000C4F2000101600821017102218171002104
:1043D000C0F8D442C4F8C00241810173FDF7CCFAA1
:1043E000002818BFFCF72EF9D4F8C00200210022E3
:1043F0001823FCF7E9FCD4F8C002802100225823DE
:10440000FCF7E2FCD4F8C00281210022C023FCF7B3
:10441000DBFCD4F8C002012100224FF48873FCF7C2
:10442000D3FCD4F8C002822100224FF48073FCF741
:10443000CBFC002010BD0000D0F8C00201F07F03CB
:104440004AB203EB830301EB810100EBC30300EBF2
:10445000C10000F5A970002A48BF03F112000078DE
:104460007047000080B59446D0F8C0021A466346F3
:10447000FCF74AFD40F200220223C100C0F20122F3
:10448000042838BF22FA01F3D8B280BD80B5D0F835
:10449000C002FCF767FD40F200220223C100C0F217
:1044A0000122042838BF22FA01F3D8B280BD0000EF
:1044B000F0B581B0002100224023044600254026AB
:1044C000FFF7D0FF01272046802100224023C4F8B7
:1044D0005871C4F86461FFF7C5FFD4F8B812A7613A
:1044E000666284F89C72C4F894526560C4F8A45261
:1044F00029B1D4F8B41220464A6800219047002020
:1045000001B0F0BD90F89C12042904BF90F89D12F0
:1045100080F89C120020704790F89C12032907D164
:10452000D0F8B412C96919B180B58847BDE8804098
:1045300000207047024600201174704780B5D0F803
:10454000C002FDF779FB40F200220223C100C0F255
:104550000122042838BF22FA01F3D8B280BD00003E
:10456000B0B500F52A740546204600F067F895F8C6
:10457000A8122846B5F8AE5201F01F020123022A04
:10458000C0E9A5350ED0012A06D08AB9214600F02F
:104590007DF80020B0BD00BF214600F091FA002058
:1045A000B0BD00BF214600F0E7F90020B0BD00BF5C
:1045B00001F0800100F002F80020B0BD80B5D0F815
:1045C000C002FCF7E9FC40F200220223C100C0F265
:1045D0000122042838BF22FA01F3D8B280BD0000BE
:1045E00080B5D0F8C002FDF743FB40F20022022361
:1045F000C100C0F20122042838BF22FA01F3D8B268
:1046000080BD0000014690F89C02042281F89D02C2
:10461000002081F89C22704780B5D0F8C002FCF7DA
:10462000F1FC40F200220223C100C0F20122042862
:1046300038BF22FA01F3D8B280BD00000A780270B8
:104640004A7842704A8842808A888280C988C180BC
:104650007047000000290EBF0220C0F8B4120020ED
:1046600070470000D0F8B422002A04BF022070472F
:1046700080B512689047002818BF0120400080BD17
:1046800080B5FFF7ADFF002080BD000070B582B09F
:104690000A78C2F34112531E022B07D2D0F8B4227B
:1046A00092689047002002B070BD00BF002A40F021
:1046B00057814A78092A00F25381DFE812F00B0093
:1046C000350051015B00510167008B00510125004D
:1046D000410000BF90F89C22013A022A00F240817A
:1046E000C988022940F03C81D0F8A4120322002995
:1046F00008BF0122014641F80C2F0222FFF7D4FB2C
:10470000002002B070BD00BFC988012940F0288197
:1047100090F89C124A1E022A80F074800022014602
:1047200041F8082F72E000BF90F89C22013A022A5B
:1047300000F2168149880129B4D100211FE000BF91
:104740004A8840F25026D1B2C2F2000602293270E5
:1047500080F0068190F89C22032A5DD0022A40F066
:104760008380002900F0C58003220446416080F860
:104770009C22B7E0498801297FF494AF0121C0F859
:10478000A412FFF79FFB002002B070BD8A88002AA8
:1047900040F0E680CA88002A40F0E2804D887F2DF4
:1047A00000F2DE8090F89C12032900F0D980E9B273
:1047B00080F89E520446FFF7C1FE20462646FFF7CA
:1047C00081FB002D0CBF0120022086F89C020020F6
:1047D00002B070BD4A884FF0FF3303EB122300266E
:1047E000062BADF8066000F2BB80DFE803F0052D74
:1047F0001FB9B94D590000BF0D46D0F8B0120A6874
:1048000091E000BF032940F0AB80011D0122FFF7BA
:104810004BFB002002B070BD002951D04168012936
:1048200058D1FFF74FFB002002B070BDD2B2052A6D
:1048300000F29680DFE802F0046E666A627200BFE2
:10484000D0F8B02252686CE00D46017C0446D0F8E6
:10485000B40200290CBF816AC16A0DF106008847C5
:104860000146022029E000BF80210446FFF7A6FE92
:1048700020460021FFF7A2FE31782046FFF7D6FA46
:10488000002002B070BD00BF027C002A68D104463F
:10489000D0F8B4020D46416B0DF10600884747E0A1
:1048A000027C002A5CD10446D0F8B4020D46016BAC
:1048B0000DF10600884701460720487039E000BF27
:1048C000022280F89C22002242600446FFF7AEFAE2
:1048D0000EE000BFC9B20546FFF7A8FA31782C46B2
:1048E00069602846FFF7BEFE022801D1204638E065
:1048F0002046FFF7E7FA002002B070BDD0F8B022E2
:1049000052690EE0D0F8B022D2680AE0D0F8B022A6
:10491000126906E0D0F8B022926802E0D0F8B02226
:104920009269EAB10D460446007C0DF106019047FC
:104930000146BDF8060048B1EA883AB1904238BF56
:1049400002462046ADF80620FFF7AEFAE8880028B8
:104950007FF4A8AE2046FFF7B5FA002002B070BD84
:1049600004468021FFF72AFE20460021FFF726FE9D
:10497000002002B070BD0000B0B50B784FF0FF35DD
:1049800003F0600205EB5215022D05D2D0F8B422D7
:10499000926890470020B0BDC3F34113DBBB202ACF
:1049A00006D1D0F8B4229268BDE8B040104700BFED
:1049B0004B780A4609792BB3012B11D0032B2AD14E
:1049C00090F89C32032B0FD15388C3BB11F07F03A7
:1049D00035D0D2889ABB0446FFF7F0FD2EE000BF29
:1049E00090F89C32032B21D0022B14D14A0612D00E
:1049F0000446FFF7E3FD20468021FFF7DFFD00209E
:104A0000B0BD00BF90F89C22032A1DD0022A08BF27
:104A10005FEA416240D080210446FFF7CFFD204687
:104A20000021FFF7CBFD0020B0BD00BF5288002A57
:104A300044D14A0603D00446FFF7EEFB2046FFF7B9
:104A400041FA0020B0BD00BF01F00F0202EB82026C
:104A5000802900EB82022CBF9269D2F85821002AEB
:104A6000D9D001F07F0202EB820200EB820202F158
:104A7000140401EB810200EB8202802938BF02F5A9
:104A8000AA744A0614D00546FFF7D6FC014628460C
:104A9000002918BF01210CE009064FF014024FF065
:104AA000000358BF4FF4AA728118835003E000BF7F
:104AB0000021216021460222FFF7F6F90020B0BD57
:104AC000B0B50A7802F06002602A08D090F89C2203
:104AD000013A022A03D88A8812F0FE0F0AD08021F8
:104AE0000446FFF76BFD20460021FFF767FD00201D
:104AF000B0BD00BFD0F8B422044692680D4690477E
:104B0000E988002908BF0028F1D12046FFF7DAF92B
:104B10000020B0BD7047000040F25440C2F20000D7
:104B200070470000F0B50B78024691F803E030F8CA
:104B3000230047F27066BEF1030F20EA060C11D87D
:104B40000020DFE80EF00307100B00BF4CF4007CE0
:104B500009E000BF4CF4806C05E000BF4CF4C06C71
:104B600001E000BF012048F28004CFF6FF744CEA58
:104B7000040622F8236032F8236040F60F752E40B9
:104B80001E43264322F823600E7B48F2800C002E41
:104B900052D032F8234040F60F652C4048F2800591
:104BA000BEF1020F08BF05F580752C4322F82340A3
:104BB000B2F850400E8902EB03152C4426F0010692
:104BC000A4F80064B2F850404E892C4426F0010548
:104BD000A4F808544C7832F82310002C56D049041D
:104BE00009D532F8231040F60F742140614401F5D5
:104BF000804122F8231032F82310490608D532F8F4
:104C0000231040F60F7421406144403122F82310F4
:104C100032F8231040F63F7421400CF120044C4040
:104C2000BEF1010F08BF41EA0C0422F8234032F81C
:104C3000231043F60F7750E04E78B2F85040CF88FB
:104C40001D01002E27F001064ED051192144A1F874
:104C5000006432F82310490608D532F8231040F6D4
:104C60000F7421406144403122F8231032F82310A0
:104C700040F63F74BEF1010F01EA04012ED00CF1A1
:104C80002007794022F82310F0BD00BF490409D560
:104C900032F8231040F60F773940614401F5804126
:104CA00022F8231032F82310490608D532F82310D1
:104CB00040F60F7739406144403122F8231032F832
:104CC000231043F60F7739400CF54057794022F80E
:104CD000231032F8231040F63F77394041EA0C01A7
:104CE00022F82310F0BD00BF15442F19A7F808645F
:104CF000B2F850E005F20C4434F80E506FF39F25E3
:104D000024F80E5009693F290CD3CF063EF80470F1
:104D10004FEA51154FF0FF3608BF06EB511547EA31
:104D2000852111E071B101F0010534F80E6005EB49
:104D3000510146EA812124F80E1032F8231049046B
:104D40000DD416E034F80E1048F20005CFF6FF75CA
:104D5000294324F80E1032F82310490409D532F8FB
:104D6000231040F60F773940614401F5804122F865
:104D700023105BB132F8231043F60F7739400CF55E
:104D80000057794022F82310F0BD00BF118843F688
:104D90000F7739400CF54057794022F82310F0BDC9
:104DA00000207047B0B50B7802460C7B487832F88B
:104DB00023104CF2800C002C4CF280043AD00028D6
:104DC00042D0480408D532F8230040F60F7108405D
:104DD00040EA0C0022F8230032F8230043F60F7E4D
:104DE000400640F63F7009D532F8231040F60F75A3
:104DF00029406144A1F57F5122F8231032F8231095
:104E000040F60F7529402143ACF5804422F8231069
:104E100032F823100840204322F8230032F8230000
:104E200000EA0E006044A0F58041002022F8231023
:104E3000B0BD00BFF0B1480640F63F7EEED5ACF500
:104E40007F5440F60F70E3E7480408D532F823009A
:104E500040F60F71084040EA0C0022F8230032F8B7
:104E60002300ACF57F54400640F63F7E43F60F70BA
:104E7000BAD4C3E7480443F60F7ECFD540F60F708F
:104E8000C6E700000020704700207047014601205F
:104E9000A1F8400000220020A1F84020A1F8442001
:104EA000A1F85020704700000146B0F8400044F2DD
:104EB000FF0202400020A1F8402070470020704708
:104EC0000A7B0AB10020704791F800C04A7830F898
:104ED0002C30BAB15A0648F2A0030CD580B530F890
:104EE0002CE040F60F7202EA0E021A44203220F83B
:104EF0002C20BDE88040C9780129E3D040F63F71FD
:104F000010E000BF59044BF2800309D530F82C1093
:104F100040F60F721140194401F5805120F82C1011
:104F200043F60F7130F82C201140594020F82C1016
:104F30000020704702460B78487832F823C040F6CC
:104F40003F71002848F2900008BF43F60F71CFF67A
:104F5000FF7008BF00F57F6001EA0C0141400020AE
:104F600022F82310704700002DE9F04F82B04F78EF
:104F7000012F5BD18B690A690F7B934228BF1346CF
:104F8000002F7BD0CF780C6A022F40F0C1800D78C3
:104F900040F60F6630F825704FEA850E944206EA17
:104FA000070648F2B00C40F2218147F65077F61B15
:104FB000D036A4EB030A20F82560C1F820A030F811
:104FC0002560B0F850702D0176069EB200EB050802
:104FD00000F1608108EB0704A4F80434D1F814B0A0
:104FE000002E00F005830D89013600EB450505F51F
:104FF00080694FF0FF3505EB5604C6F34105002DDF
:105000004FEA560700F0E0815E46CDE9004836F8E9
:10501000028B5C46CB46012D2BF8048B40F0D881E7
:10502000DDF80480013FD946A346CEE20A7B002A80
:1050300048D0CA78012A00F0A180022A40F0C68038
:105040000A78002F40F06382B0F8507013010744D3
:1050500007F20446F75A6FF39F27F7520F693F2F65
:10506000C0F05681FC064FEA57159C5B4FF0FF3CA1
:1050700008BF0CEB571544EA85251AE21A0400F024
:105080007B81CA88D1F814E000EB420202F5806807
:105090009AB201324FF0FF37C2F3410407EB520CD2
:1050A000002C4FEA520200F05481774637F8025B39
:1050B0004646012C26F8045B40F01881013ABE46B2
:1050C000B04646E18E690B69F21A38BF00228A6148
:1050D000B0F850700A7807444FEA021107F20C4703
:1050E0007D5A38BF33466FF39F253F2B7D5271D3D6
:1050F000DC06CC5B4FEA53164FF0FF3508BF05EBDB
:10510000531644EA862343F40043CB5346E200BFE0
:10511000E21A0F780A6230F82720B0F850403D01BB
:10512000520605444FEA870E9AB248F2B00C2C445E
:1051300000F18C80002AA4F8043400F00D830B8960
:105140000132496900EB43034FF0FF34C2F34105DC
:1051500003F5806304EB5208002D4FEA520200F081
:1051600058810E4636F8024B1F46012D27F8044B96
:1051700040F01281013A31463B464AE18A690B69A7
:10518000D61A3CBF002613460A78002F8E6140F0E5
:105190000582B0F850701101074407F204456F5AB8
:1051A0003F2B6FF39F274FEA53164FEAC36C6F52A2
:1051B000C0F0BA8037464C5B4FF0FF3EBCF1000FA9
:1051C00008BF0EEB531744EA8727BAE1012002B06B
:1051D000BDE8F08F002B00F0958003F001067D5AAA
:1051E00006EB530345EA83237B52D7E147F650721F
:1051F000B21A303A20F82520B0F8502000EB051301
:105200001A442304A2F8044400F0A6820A894969DA
:1052100000EB420202F58063A2B201324FF0FF348C
:10522000C2F3410504EB5208002D4FEA520200F090
:105230000C810E4636F8024B1F46012D27F8044B11
:1052400040F0B280013A31463B46FEE0002AA4F825
:105250000C3400F081824B890132496900EB430331
:105260004FF0FF34C2F3410503F5806304EB5208AD
:10527000002D4FEA520200F004810E4636F8024B30
:105280001F46012D27F8044B40F09680013A314625
:105290003B46F6E008EB0705A5F80C34D1F814B04E
:1052A000002E00F0FD814D89013600EB450505F526
:1052B00080694FF0FF3505EB5604C6F34105002D1C
:1052C0004FEA560700F082805E46CDE9004836F886
:1052D000028B5C46CB46012D2BF8048B40F0868078
:1052E000DDF80480013FD946A346C6E1BEF802506E
:1052F000022CA8F8045023D108F108080EF1040E7E
:10530000023A26E07B5A43F400437B5246E100BF59
:10531000002F00F0CD8007F00105F45A05EB57058A
:1053200044EA8525CAE000BF002B00F0098103F0A4
:1053300001076C5A07EB530744EA872406E100BFD4
:10534000BEF804400EF1060EA8F8084008F10C085B
:10535000033ABCF1030F0FD3AEF10807A8F1100612
:1053600037F8085F043A26F8105F7D88B580BD885D
:105370003581FD88B581F3D1B0F850200978024419
:1053800002EB011248F2B00CA2F804344FEA810E8D
:1053900040F63F71E2E100BF4C88022D9C8033D182
:1053A00008330431023A34E04C88022D9C8047D106
:1053B00008330431023A48E04C88022D9C805BD1CE
:1053C00008330431023A5CE05E46FFE05E4655E198
:1053D0006688022DA346A9F8046040F0EB8009F12D
:1053E00008090BF10406023FEDE000BF6688022DBC
:1053F000A346A9F8046040F0358109F108090BF1D2
:105400000406023F37E100BF8C8806311C810C3353
:10541000033AB8F1030FC0F09F81A1F10804103BDB
:1054200034F8081F043A23F8101F61889980A18876
:105430001981E188998140F63F71F1D18EE100BF79
:105440008C8806311C810C33033AB8F1030FC0F08D
:105450008381A1F10804103B34F8081F043A23F8B3
:10546000101F61889980A1881981E188998140F68F
:105470003F71F1D172E100BF8C8806311C810C3381
:10548000033AB8F1030FC0F06781A1F10804103BA3
:1054900034F8081F043A23F8101F61889980A18806
:1054A0001981E188998140F63F71F1D156E100BF41
:1054B000F55A48F20004CFF6FF742543F552B0F8D0
:1054C00050603F2F064406F20C46F55A6FF39F25B5
:1054D000F5520BD3FC069C5B4FEA57154FF0FF3C8F
:1054E00008BF0CEB571544EA85270AE047B107F0DF
:1054F0000105F45A05EB570744EA872706E000BF89
:10550000F75A48F20005CFF6FF752F43F752C969E5
:10551000002943D030F8221044F240031940994248
:1055200000D0D9BB30F8221040F60F73194048F272
:10553000B003CFF6FF731943103120F822102DE08D
:105540006F5A48F20004CFF6FF743C436C52B0F837
:1055500050703F2B074407F20C456F5A6FF39F279B
:105560006F520DD34C5B4FF0FF37BCF1000F08BFFB
:1055700007EB531644EA862343F400434B530DE0F4
:1055800043B103F001076E5A07EB530346EA832346
:1055900003E000BF6B5A43F400436B5242F6D071F4
:1055A000A1F5E0414FEA820EA1F5756C43F60F714B
:1055B000D4E000BFBBF804500BF10606A9F8085070
:1055C00009F10C09033FDDF80480009C032C0FD384
:1055D000083EA9F1100500BF36F8084F043F25F832
:1055E000104F7488AC80B4882C81F488AC81F3D1DE
:1055F0000BEB030600244E61924588BFAAEB03041F
:105600000C62B0F8502088BF9A4608EB02031FFADC
:105610008AF2002AA3F80CA400F09E804989013286
:1056200000EB41014FF0FF33C2F3410401F580610B
:1056300003EB5208002C4FEA52026ED0354635F883
:10564000023B0F46012C27F8043B03D1013A2E46BA
:10565000394662E07388022C8B8059D108310436B8
:10566000023A5AE0BBF804500BF10606A9F80850BC
:1056700009F10C09033FDDF80480009C032C0FD3D3
:10568000083EA9F1100500BF36F8084F043F25F881
:10569000104F7488AC80B4882C81F488AC81F3D12D
:1056A0000BEB030600244E61924588BFAAEB03046E
:1056B0000C62B0F8502088BF9A4608EB02031FFA2C
:1056C0008AF2002AA3F804A446D00989013200EB2B
:1056D00041014FF0FF33C2F3410401F5806103EB58
:1056E00052084FEA5202A4B3354635F8023B0F4642
:1056F000012C27F8043B03D1013A2E46394628E015
:105700007388022C8B801FD108310436023A20E0C6
:10571000B38806360B810C31033AB8F1030F1BD363
:10572000A6F10803A1F1100433F8081F043A24F885
:10573000101F5988A18099882181D988A18140F6BC
:105740003F71F1D10AE000BFB38806360B810C31FE
:10575000033AB8F1030F0DD240F63F7130F80E2036
:10576000114081EA0C0120F80E10002002B0BDE8C3
:10577000F08F00BFA6F10803A1F1100433F8081F51
:10578000043A24F8101F5988A18099882181D9886A
:10579000A18140F63F71F1D1E0E700000146002011
:1057A0004FF43F42A1F84400A1F8402070470000A8
:1057B00041F28C10C2F20000FBF740BCB0F844008C
:1057C0007047000070B500EB4200022B00F58064CA
:1057D00002D220460A464AE04FF0FF30C3F34105AB
:1057E0004FEA530C00EB530E75B1204630F8046BB2
:1057F0000A46012D22F8026B0CD1ACF1010C1146C6
:10580000BEF1030F1FD232E02046BEF1030F1AD2C1
:105810002DE000BFA088022D488009D10A1D04F1A7
:105820000800ACF1020C1146BEF1030F0BD21EE0D2
:1058300020898A1D888004F10C00ACF1030C11460C
:10584000BEF1030F13D30A4630F8101BBCF1040C51
:1058500022F8081B30F80C1C22F8061C30F8081C33
:1058600022F8041C30F8041C22F8021CECD1D907E1
:105870001CBF0088107070BD00207047002904BF55
:105880008021A0F84C10002070470000002B08BFBA
:105890007047B0B500EB420000F5806E581C4FF029
:1058A000FF32C0F3410302EB500C4FEA5000C3B18A
:1058B0000A4632F8025B7446012B24F8045B07D1D8
:1058C00001381146A646BCF1030F0DD21CE000BF03
:1058D0004A88022BAEF804201AD10EF1080E0431CA
:1058E0000238BCF1030F0FD30839AEF1100200BF2C
:1058F00031F8083F043822F8103F4B8893808B889A
:105900001381CB889381F3D1BDE8B040704700BFCD
:105910008A880631AEF808200EF10C0E0338BCF16F
:10592000030FE1D2F0E70000FEE7000080B582B08F
:1059300040F60C00C1F61C00019041F238104FF007
:10594000640CC2F2000001AA4E210423CDF800C06D
:10595000FBF760F80220FAF77BFE02B080BD000082
:1059600070B582B03220FAF773FE41F2381443F674
:105970003C06C2F20004C0F60C06642501AA2046CB
:105980004E21042301960095FBF744F80520FAF711
:105990005FFE01AA20464E21042301960095FBF7E5
:1059A00039F80120FAF754FE01AA20464E210423BB
:1059B00001960095FBF72EF80A20FAF749FE42F609
:1059C0002C00C0F60C00019001AA20464E210423B1
:1059D0000095FBF71FF80A20FAF73AFE42F62C0072
:1059E000C8F68C00019001AA20464E2104230095A0
:1059F000FBF710F80120FAF72BFE40F60C00C8F672
:105A00008C00019001AA20464E2104230095FBF74B
:105A100001F80120FAF71CFE40F60C00C1F61C004C
:105A2000019001AA20464E2104230095FAF7F2FFC7
:105A30000220FAF70DFE40F60C00C6F66C0001904D
:105A400001AA20464E2104230095FAF7E3FF012026
:105A5000FAF7FEFD40F60C00CCF6CC00019001AA4E
:105A600020464E2104230095FAF7D4FF02B070BD02
:105A7000012805D0002808BF41F0800102E000BFE6
:105A800041F0C00180B582B021F00F00090100F1A2
:105A90000C0208308DF8050001F10C008DF80600AD
:105AA00001F108008DF8070041F238108DF804204C
:105AB0004FF0640CC2F2000001AA4E210423CDF87D
:105AC00000C0FAF7A7FF02B080BD000001780029EE
:105AD00008BF7047F0B583B041F23814461E642702
